:100000000C9434000C9449000C9449000C94490061
:100010000C9449000C9449000C9449000C9449003C
:100020000C9449000C9449000C9449000C9449002C
:100030000C9449000C9449000C9449000C9449001C
:100040000C9449000C9449000C9449000C9449000C
:100050000C9449000C9449000C9449000C944900FC
:100060000C9449000C94490011241FBECFEFD8E036
:10007000DEBFCDBF12E0A0E0B1E0E4E3FFE002C0EC
:1000800005900D92A831B107D9F70E9423010C9475
:1000900098070C940000662311F032E001C030E0B4
:1000A00081113C5F4295407F4BB9232F2E7025B9BB
:1000B00080EC9DE5FC013197F1F7316035B901978E
:1000C000F1F725B90895AF92BF92CF92DF92EF92E8
:1000D000FF920F931F93CF93DF93082FF62E142FC9
:1000E000882319F0C1E0D0E002C0C6E0D0E0412F83
:1000F00042954F70802F6F2D0E944B001F70802FF4
:100100006F2D412F0E944B00BE0180E090E00E94C5
:10011000F3045B016C0120E030E04AE755E40E9403
:1001200015037B018C0120E030E040E85FE30E9492
:100130006F0488231CF461E070E024C0C801B7019B
:1001400020E03FEF4FE757E40E940F041816B4F485
:10015000C601B50120E030E040E251E40E94150301
:100160000E943F0180E991E005C0FC013197F1F761
:100170006150704061157105C1F707C0C801B70132
:100180000E943F01CB010197F1F7DF91CF911F91C1
:100190000F91FF90EF90DF90CF90BF90AF900895B8
:1001A000482F81E060E00E9463000895CF93DF93C1
:1001B000EC0103C00E94D000219688818823D1F7EA
:1001C000DF91CF910895942F882311F04CE001C066
:1001D00048E061114E5F91114F5F80E060E00E9446
:1001E0006300089580E060E041E00E9463000895AC
:1001F00080E060E042E00E946300089508959091DD
:100200000E01943039F0983011F448E204C081E0D6
:1002100090E009C040E2813041F0823011F4485F43
:1002200004C080E090E00E94980780E060E00E94B7
:10023000630080910E01843029F480E060E040E0AA
:100240000E944B0008959FEF94B980EF8AB997B947
:100250001BB815B880E69AEE0197F1F782E00E948C
:10026000FF0081E061E041E00E94E3000E94F800AD
:100270000E94F20080E091E00E94D600FFCFEF9252
:10028000FF920F931F937B018C0120E030E040E050
:100290005FE40E943F0488238CF0C801B70120E08E
:1002A00030E040E05FE40E94B7020E949F049B019F
:1002B000AC01205030404040504806C0C801B70152
:1002C0000E949F049B01AC01B901CA011F910F91CB
:1002D000FF90EF900895A0E0B0E0E1E7F1E00C942A
:1002E0006107DC012B01FA019C91923008F439C1BD
:1002F000EB018881823008F433C1943069F4843092
:1003000009F02FC111969C9111978981981709F4D2
:1003100028C1AFE0B1E025C1843009F421C18230A9
:10032000A9F4923009F01DC19A01AD0188E0EA01FB
:100330000990AE01E90109929E018150C1F7E201E5
:10034000898111969C918923818308C1923009F497
:1003500007C112962D903C901397EB018A819B81E7
:100360001496AD90BD90CD90DC901797EC80FD80F9
:100370000E811F819101281B390BB90137FF04C081
:1003800066277727621B730B603271050CF061C022
:10039000121613066CF537014801062E04C0969418
:1003A0008794779467940A94D2F721E030E040E094
:1003B00050E004C0220F331F441F551F6A95D2F727
:1003C00021503040404050402E213F2140235123B6
:1003D000211531054105510521F021E030E040E0D3
:1003E00050E079018A01E628F728082919293CC03C
:1003F000232BD1F1260E371E35014601062E04C0EF
:1004000096948794779467940A94D2F721E030E029
:1004100040E050E004C0220F331F441F551F6A956F
:10042000D2F721503040404050402A213B214C21FE
:100430005D21211531054105510521F021E030E014
:1004400040E050E059016A01A628B728C828D928F9
:100450000BC0821593052CF01C01AA24BB24650156
:1004600003C0EE24FF24870111969C91D2011196BE
:100470008C91981709F445C0992339F0A801970188
:100480002A193B094C095D0906C0A60195012E19E0
:100490003F09400B510B57FD08C011823382228265
:1004A00024833583468357831DC081E08183338253
:1004B000228288279927DC01821B930BA40BB50BA2
:1004C00084839583A683B7830DC0220F331F441FF7
:1004D000551F2483358346835783828193810197F7
:1004E000938382832481358146815781DA01C90152
:1004F0000197A109B1098F5F9F4FAF4FBF4328F309
:100500000BC0918333822282EA0CFB1C0C1D1D1D43
:10051000E482F5820683178383E08083248135811A
:100520004681578157FF1AC0C901AA2797FDA09598
:10053000BA2F81709070A070B0705695479537951E
:100540002795822B932BA42BB52B84839583A6838D
:10055000B78382819381019693838283DF0101C0F7
:10056000D201CD01CDB7DEB7E2E10C947D07A0E268
:10057000B0E0EDEBF2E00C946D0769837A838B8336
:100580009C832D833E834F835887E9E0EE2EF12C28
:10059000EC0EFD1ECE010196B7010E9490068E0161
:1005A0000F5E1F4FCE010596B8010E9490068A8902
:1005B00091E089278A8BC701B801AE01475E5F4F82
:1005C0000E946B010E94BB05A096E6E00C9489078F
:1005D000A0E2B0E0EEEEF2E00C946D0769837A835E
:1005E0008B839C832D833E834F835887F9E0EF2EC6
:1005F000F12CEC0EFD1ECE010196B7010E94900673
:100600008E010F5E1F4FCE010596B8010E94900625
:10061000C701B801AE01475E5F4F0E946B010E94A7
:10062000BB05A096E6E00C948907A0E2B0E0EBE100
:10063000F3E00C94610769837A838B839C832D8319
:100640003E834F835887CE010196BE01675F7F4F7F
:100650000E949006CE010596BE016F5E7F4F0E94FC
:1006600090069985923088F089898230C8F094305C
:1006700019F4823051F404C0843029F4923081F4AA
:100680008FE091E0C6C0923049F420E09A858A89D3
:10069000981321E02A87CE010996BBC0823049F425
:1006A00020E09A858A89981321E02A8BCE01419611
:1006B000B0C02D843E844F8458886D887E888F8892
:1006C000988CEE24FF248701AA24BB24650140E016
:1006D00050E060E070E0E0E0F0E0C1018170907017
:1006E000892BE9F0E60CF71C081D191D9A01AB01D6
:1006F0002A0D3B1D4C1D5D1D80E090E0A0E0B0E0A8
:10070000E614F7040805190520F481E090E0A0E064
:10071000B0E0BA01A901480F591F6A1F7B1FAA0C3C
:10072000BB1CCC1CDD1C97FE08C081E090E0A0E063
:10073000B0E0A82AB92ACA2ADB2A3196E032F105AC
:1007400049F0660C771C881C991C56944794379482
:100750002794C3CFFA85EA892B893C898B859C85B0
:10076000280F391F2E5F3F4F17C0CA01817090704C
:10077000892B61F016950795F794E79480E090E057
:10078000A0E0B0E8E82AF92A0A2B1B2B769567959A
:10079000579547952F5F3F4F77FDE7CF0CC0440F2C
:1007A000551F661F771F17FD4160EE0CFF1C001FD1
:1007B000111F21503040403090E0590790E0690708
:1007C00090E4790760F32B8F3C8FDB01CA018F77B0
:1007D0009070A070B07080349105A105B10561F4EE
:1007E00047FD0AC0E114F1040105110529F0405C40
:1007F0005F4F6F4F7F4F40781A8EFE1711F081E0E8
:100800008A8F4D8F5E8F6F8F78A383E0898FCE01A3
:1008100049960E94BB05A096E2E10C947D07A8E1F1
:10082000B0E0E5E1F4E00C946D0769837A838B8393
:100830009C832D833E834F83588789E0E82EF12CDB
:10084000EC0EFD1ECE010196B7010E9490068E01AE
:100850000F5E1F4FCE010596B8010E949006898554
:10086000823040F08989823028F0C701B8010E94A7
:10087000080701C08FEF6896E6E00C948907A8E1AD
:10088000B0E0E5E4F4E00C946D0769837A838B8330
:100890009C832D833E834F83588789E0E82EF12C7B
:1008A000EC0EFD1ECE010196B7010E9490068E014E
:1008B0000F5E1F4FCE010596B8010E9490068985F4
:1008C000823040F08989823028F0C701B8010E9447
:1008D000080701C08FEF6896E6E00C948907A8E14D
:1008E000B0E0E5E7F4E00C946D0769837A838B83CD
:1008F0009C832D833E834F83588789E0E82EF12C1B
:10090000EC0EFD1ECE010196B7010E9490068E01ED
:100910000F5E1F4FCE010596B8010E949006898593
:10092000823040F08989823028F0C701B8010E94E6
:10093000080701C081E06896E6E00C948907ACE006
:10094000B0E0E5EAF4E00C94710769837A838B8365
:100950009C83CE010196BE016B5F7F4F0E94900683
:100960008D81823061F1823050F1843021F48E81AA
:10097000882351F12EC02F81388537FD20C06E812C
:100980002F3131051CF06623F9F023C08EE190E091
:10099000821B930B29853A854B855C8504C056954F
:1009A0004795379527958A95D2F76623B1F05095EC
:1009B0004095309521953F4F4F4F5F4F0EC020E03F
:1009C00030E040E050E009C02FEF3FEF4FEF5FE72E
:1009D00004C020E030E040E050E8B901CA012C96A4
:1009E000E2E00C948D07A8E0B0E0E9EFF4E00C94AD
:1009F00069077B018C01611571058105910519F469
:100A000082E0898360C083E089838EE1C82ED12C87
:100A1000DC82CB82ED82FE820F831887C801B7018A
:100A20000E946C05FC013197F7FF3BC0222733275A
:100A30002E1B3F0B57016801022E04C0D694C794A9
:100A4000B794A7940A94D2F740E050E060E070E0D9
:100A500081E090E0A0E0B0E004C0880F991FAA1FD9
:100A6000BB1F2A95D2F70197A109B1098E219F21B9
:100A7000A023B1230097A105B10521F041E050E08A
:100A800060E070E04A295B296C297D294D835E83F3
:100A90006F8378878EE190E08E1B9F0B9C838B8306
:100AA00012C0309781F00E2E04C0EE0CFF1C001F08
:100AB000111F0A94D2F7ED82FE820F831887CE1A97
:100AC000DF0ADC82CB821A82CE0101960E94BB052E
:100AD0002896EAE00C948507EF92FF920F931F93FC
:100AE0007B018C0180E0E81680E0F80681E00807D1
:100AF00080E0180788F48FEFE816F104010511056E
:100B000031F028F088E090E0A0E0B0E017C080E08D
:100B100090E0A0E0B0E012C080E0E81680E0F806C7
:100B200080E0080781E0180728F088E190E0A0E065
:100B3000B0E004C080E190E0A0E0B0E020E230E06E
:100B400040E050E0281B390B4A0B5B0B04C01695A4
:100B50000795F794E7948A95D2F7F701E95EFE4F7F
:100B60008081281B310941095109C9011F910F9149
:100B7000FF90EF900895DF92EF92FF920F931F93F3
:100B8000FC01E480F58006811781D180808182306C
:100B900048F480E090E0A0E1B0E0E82AF92A0A2BCE
:100BA0001B2BA5C0843009F49FC0823021F4EE24B1
:100BB000FF24870105C0E114F1040105110519F4B2
:100BC000E0E0F0E096C0628173819FEF62387907C0
:100BD0000CF05BC022E83FEF261B370B2A313105B2
:100BE0002CF020E030E040E050E02AC0B801A7013E
:100BF000022E04C076956795579547950A94D2F7CB
:100C000081E090E0A0E0B0E004C0880F991FAA1F27
:100C1000BB1F2A95D2F70197A109B1098E219F2107
:100C2000A023B1230097A105B10521F081E090E058
:100C3000A0E0B0E09A01AB01282B392B4A2B5B2BAB
:100C4000DA01C9018F779070A070B070803491057F
:100C5000A105B10539F427FF09C0205C3F4F4F4F74
:100C60005F4F04C0215C3F4F4F4F5F4FE0E0F0E02B
:100C70002030A0E03A07A0E04A07A0E45A0710F0AD
:100C8000E1E0F0E079018A0127C06038710564F580
:100C9000FB01E158FF4FD801C7018F779070A0701A
:100CA000B07080349105A105B10539F4E7FE0DC09F
:100CB00080E490E0A0E0B0E004C08FE390E0A0E02A
:100CC000B0E0E80EF91E0A1F1B1F17FF05C016959E
:100CD0000795F794E794319687E016950795F79472
:100CE000E7948A95D1F705C0EE24FF248701EFEF42
:100CF000F0E06E2F679566276795902F9F77D794C2
:100D0000DD24D7948E2F8695492F462B582F5D29A9
:100D1000B701CA011F910F91FF90EF90DF900895E6
:100D2000FC01DB01408151812281622F6F7770E0ED
:100D3000221F2227221F9381892F880F822B282F81
:100D400030E0991F9927991F11969C9311972115AF
:100D50003105A9F5411551056105710511F482E0D0
:100D600037C082E89FEF13969C938E9312979A0157
:100D7000AB0167E0220F331F441F551F6A95D1F75F
:100D800083E08C930DC0220F331F441F551F129612
:100D90008D919C911397019713969C938E93129724
:100DA000203080E0380780E0480780E4580758F397
:100DB00014962D933D934D935C93179708952F3F71
:100DC000310579F4411551056105710519F484E087
:100DD0008C93089564FF03C081E08C9312C01C9231
:100DE00010C02F57304013963C932E93129783E0F8
:100DF0008C9387E0440F551F661F771F8A95D1F7A4
:100E0000706414964D935D936D937C93179708953A
:100E10001F93DC01FB019C91923008F447C0808154
:100E2000823008F443C0943051F411961C91843000
:100E300099F58181682F70E0611B71093FC0843092
:100E400021F0923031F48230B9F18181882389F127
:100E50002DC011961C9111978230F1F081811817E5
:100E6000D9F412962D913C91139782819381821728
:100E7000930794F028173907BCF014968D919D9133
:100E80000D90BC91A02D2481358146815781281772
:100E900039074A075B0718F4112341F00AC082178B
:100EA0009307A407B50740F4112319F061E070E03F
:100EB00005C06FEF7FEF02C060E070E0CB011F91D3
:100EC00008952F923F924F925F926F927F928F92EE
:100ED0009F92AF92BF92CF92DF92EF92FF920F93C9
:100EE0001F93CF93DF93CDB7DEB7CA1BDB0B0FB6D3
:100EF000F894DEBF0FBECDBF09942A883988488890
:100F00005F846E847D848C849B84AA84B984C88425
:100F1000DF80EE80FD800C811B81AA81B981CE0F1C
:100F2000D11D0FB6F894DEBF0FBECDBFED01089501
:040F3000F894FFCF63
:100F34004655434B534849542121212121000400A3
:100F44000000000000000000010202030303030488
:100F54000404040404040405050505050505050544
:100F64000505050505050506060606060606060624
:100F7400060606060606060606060606060606060D
:100F840006060606060606070707070707070707F4
:100F940007070707070707070707070707070707DD
:100FA40007070707070707070707070707070707CD
:100FB40007070707070707070707070707070707BD
:100FC40007070707070707080808080808080808A4
:100FD400080808080808080808080808080808088D
:100FE400080808080808080808080808080808087D
:100FF400080808080808080808080808080808086D
:10100400080808080808080808080808080808085C
:10101400080808080808080808080808080808084C
:10102400080808080808080808080808080808083C
:10103400080808080808080808080808080808082C
:0810440008080808080808006C
:00000001FF
